:020000040800F2
:10000000008001200D020008210C00082D0C0008C2
:10001000330C0008390C00083F0C000800000000F9
:10002000000000000000000000000000450C000877
:10003000510C0008000000005D0C0008690C00086D
:100040005502000855020008550200085502000834
:100050005502000855020008550200085502000824
:100060005502000855020008550200085502000814
:100070005502000855020008550200085502000804
:1000800055020008550200085502000855020008F4
:1000900055020008550200085502000855020008E4
:1000A00055020008550200085502000855020008D4
:1000B00055020008550200085502000855020008C4
:1000C00055020008550200085502000855020008B4
:1000D00055020008550200085502000855020008A4
:1000E0005502000855020008550200085502000894
:1000F0005502000855020008550200085502000884
:100100005502000855020008550200085502000873
:100110005502000855020008550200085502000863
:100120005502000855020008550200085502000853
:100130005502000855020008550200085502000843
:1001400000000000000000000000000000000000AF
:100150005502000855020008550200085502000823
:100160005502000855020008550200085502000813
:100170005502000855020008550200085502000803
:04018000550200081C
:1001840010B5054C237833B9044B13B10448AFF3CD
:1001940000800123237010BD040000200000000033
:1001A4008810000808B5034B1BB103490348AFF39B
:1001B400008008BD0000000008000020881000082E
:1001C40070B50D4D0D4C641BA4100026A64209D138
:1001D4000B4D0C4C00F056FF641BA4100026A642E5
:1001E40005D170BD55F8043B98470136EEE755F844
:1001F400043B98470136F2E7D8100008D8100008ED
:10020400D8100008DC100008002103E00B4B5B58F9
:10021400435004310A480B4B42189A42F6D30A4A17
:1002240002E0002342F8043B084B9A42F9D300F061
:1002340011F8FFF7C5FF00F063FE7047E0100008F7
:1002440000000020040000200400002024000020FE
:10025400FEE7000080B400AF194A136843F00103BD
:10026400136000BF164B1B68C3F34003DBB2012BC2
:10027400F8D1134A536823F00303536000BF104BB3
:100284005B68C3F38103DBB2002BF8D10C4B1B6812
:100294000B4A23F0867323F480331360084B002247
:1002A4005A60074B00221A63054B4FF41F029A60F1
:1002B400044B4FF000629A6000BFBD4680BC70479B
:1002C4000010024000ED00E080B588B000AF0023CC
:1002D400BB610023FB6100237B6100233B6100239E
:1002E400FB600023BB6000F061FA0346FB71FB79FD
:1002F400022B20D0022B69DC002B02D0012B16D05C
:1003040064E03F4B5B6DC3F34023DBB2002B0AD0A8
:100314003B4B1B6BC3F34063DBB2002B03D0394B65
:10032400394A1A6056E0374B384A1A6052E0354B66
:10033400364A1A604EE0324B5B68C3F30043DBB2CB
:100344003B612F4B5B68C3F38343DBB2FB612C4BF4
:100354005B68C3F34173DBB27B617B69002B02D121
:10036400FB690F2B06D17B691A01FB691344013326
:10037400FB6102E0FB690233FB613B69002B06D1A0
:10038400FB69234A02FB03F31E4A136022E01C4B61
:100394005B68C3F34043DBB2002B10D0184B5B6D9A
:1003A400C3F30133DBB2BB61BB690233174AB2FB4F
:1003B400F3F3FA6902FB03F3124A13600AE0FB69E0
:1003C400124A02FB03F30F4A136003E00D4B0F4A7A
:1003D4001A6000BF0A4B5B68C3F30313DBB2FB6014
:1003E4000C4AFB6813441B78BB60064B1A68BB6855
:1003F40022FA03F3034A136000BF2037BD4680BDD1
:100404000010024000000020006CDC0200127A00A0
:1004140000093D00A010000880B400AF174A13681B
:1004240043F00103136000BF144B1B68C3F3400384
:10043400DBB2012BF8D1114A536823F00303536054
:1004440000BF0E4B5B68C3F38103DBB2002BF8D112
:100454000A4B1B68094A23F0867323F48033136024
:10046400064B00225A60054B00221A63034B4FF4DB
:100474001F029A6000BFBD4680BC70470010024056
:1004840080B485B000AF78600023FB737B681B0CDD
:1004940003F1804303F504331A687B6803F01F03F8
:1004A400012101FA03F31A407B6803F01F030121C1
:1004B40001FA03F39A4202D00023FB7301E0012303
:1004C400FB73FB7B18461437BD4680BC704780B570
:1004D40082B000AF00237B600023FB7002E07B68E6
:1004E40001337B601120FFF7CBFF0346012B03D0C0
:1004F4007B68B3F5405FF2D31120FFF7C1FF0346D9
:10050400012B02D00023FB7001E00123FB70FB7878
:1005140018460837BD4680BD80B483B000AF78600C
:100524000B46FB70FB78012B16D17B681B0C03F187
:10053400804303F5043319687B6803F01F03012229
:100544009A407B681B0C03F1804303F5043318467F
:1005540041EA0203036017E07B681B0C03F180434C
:1005640003F5043319687B6803F01F03012202FAC0
:1005740003F3DA437B681B0C03F1804303F5043374
:10058400184601EA0203036000BF0C37BD4680BC75
:100594007047000080B483B000AF03460A46FB7185
:1005A4001346BB71FB79042B3ED801A252F823F009
:1005B400C9050008DD050008F10500080506000866
:1005C400190600081B4ABB7903F00103D9B213686A
:1005D40061F30003136028E0164ABB7903F00103BA
:1005E400D9B2136861F3104313601EE0114ABB795A
:1005F40003F00103D9B2136861F31863136014E0C4
:100604000C4ABB7903F00103D9B2136A61F3000306
:1006140013620AE0074ABB7903F00103D9B2536AB3
:1006240061F30003536200E000BF00BF0C37BD4616
:1006340080BC70470010024080B483B000AF034612
:10064400FB71074AFB7903F00F03D9B2536861F3D6
:100654000713536000BF0C37BD4680BC704700BF12
:100664000010024080B483B000AF0346FB71074A18
:10067400FB7903F00703D9B2536861F30A2353608B
:1006840000BF0C37BD4680BC704700BF001002405D
:1006940080B483B000AF0346FB71074AFB7903F0D3
:1006A4000703D9B2536861F3CD23536000BF0C37FD
:1006B400BD4680BC704700BF0010024080B483B0C8
:1006C40000AF0346FB710B46BB7113467B71FB798C
:1006D400002B0AD11F4A536823F4803353601D4A08
:1006E400136B43F00073136312E01A4A536843F424
:1006F40080335360FB79012B05D1164A536823F4E8
:100704000033536004E0134A536843F400335360E6
:10071400104ABB7903F00F03D9B2536861F39543D0
:100724005360BB791B110B4A03F00303D9B253681E
:1007340061F35E735360074A7B7903F00103D9B216
:10074400536861F3DF73536000BF0C37BD4680BC50
:10075400704700BF0010024080B483B000AF03466E
:10076400FB71114AFB7903F00303D9B2536861F3B7
:100774000103536000BF00BF00BF00BF00BF00BF44
:1007840000BF00BF00BF00BF00BF00BF00BF00BF6D
:1007940000BF00BF00BF00BF00BF00BF00BF0C37D9
:1007A400BD4680BC704700BF0010024080B400AF5B
:1007B400044B5B68C3F38103DBB21846BD4680BCBF
:1007C400704700BF0010024080B58AB000AF786067
:1007D40000233B6200237B620023FB610023BB6197
:1007E40000237B6100233B61FFF7E0FF0346FB73BB
:1007F400FB7B022B20D0022B69DC002B02D0012BC7
:1008040016D064E05D4B5B6DC3F34023DBB2002B79
:100814000AD05A4B1B6BC3F34063DBB2002B03D0EB
:100824007B68574A1A6056E07B68564A1A6052E061
:100834007B68544A1A604EE0504B5B68C3F3004334
:10084400DBB2BB614D4B5B68C3F38343DBB27B62BA
:100854004A4B5B68C3F34173DBB2FB61FB69002B5A
:1008640002D17B6A0F2B06D1FB691A017B6A134400
:1008740001337B6202E07B6A02337B62BB69002B3B
:1008840006D17B6A404A03FB02F27B681A6022E0CD
:100894003A4B5B68C3F34043DBB2002B10D0374BB9
:1008A4005B6DC3F30133DBB23B623B6A0233354A0F
:1008B400B2FBF3F37A6A03FB02F27B681A600AE084
:1008C4007B6A304A03FB02F27B681A6003E07B68B0
:1008D4002C4A1A6000BF294B5B68C3F30313DBB2D5
:1008E4007B612A4A7B6913441B783B617B681A68E5
:1008F4003B69DA407B685A60204B5B68C3F3022390
:10090400DBB27B61224A7B6913441B783B617B68C1
:100914005A683B69DA407B68DA60184B5B68C3F35A
:10092400C223DBB27B611B4A7B6913441B783B61A6
:100934007B685A683B69DA407B689A600F4B5B6856
:10094400C3F30073DBB27B617B699B000B4A526883
:10095400C2F38132D2B213437B610F4A7B691344E1
:100964001B783B617B689A683B69B2FBF3F27B6856
:100974001A6100BF2837BD4680BD00BF0010024089
:10098400006CDC0200127A0000093D00B01000087F
:10099400C0100008C8100008D010000880B483B04C
:1009A40000AF0346FB71FB79012B05D1074A536D58
:1009B40043F03003536504E0044A536D23F03003DD
:1009C400536500BF0C37BD4680BC70470010024021
:1009D40080B485B000AF786039603B681B683B81A8
:1009E4003B689B79032B02D100237B812FE03B687A
:1009F4009B79002B14D13B685B7903F00F037B8157
:100A04003B685B79182B03D13A897B681A611EE035
:100A14003B685B79282B1AD13A897B685A6116E0C6
:100A24003B689B791BB203F008031AB23B681B793D
:100A34001BB203F004031BB213431AB23B68DB7905
:100A44001BB203F003031BB213431BB27B813B892C
:100A5400DBB2002B25D00023FB601FE03A89FB6842
:100A640042FA03F303F00103002B14D07B681B68E4
:100A7400FA6892000F2101FA02F2D2431A407B680D
:100A84001A607B681B687989FA68920001FA02F29D
:100A94001A437B681A60FB680133FB60FB68072B11
:100AA400DCD93B89FF2B28D93B891B0A3B810023D6
:100AB400FB601FE03A89FB6842FA03F303F0010389
:100AC400002B14D07B685B68FA6892000F2101FA4E
:100AD40002F2D2431A407B685A607B685B6879896A
:100AE400FA68920001FA02F21A437B685A60FB68C2
:100AF4000133FB60FB68072BDCD900BF1437BD460C
:100B040080BC704780B483B000AF78607B684FF6D8
:100B1400FF721A607B6800229A717B6800221A7146
:100B24007B6804225A717B680122DA7100BF0C379A
:100B3400BD4680BC704780B483B000AF78600B467C
:100B44007B807A887B685A6100BF0C37BD4680BCC5
:100B5400704780B483B000AF78600B467B80134647
:100B64007B707B78002B03D07A887B681A6102E063
:100B74007A887B685A6100BF0C37BD4680BC7047D9
:100B840080B485B000AF78607B6803F00703FB6036
:100B94000C4BDB68BB60BA684FF6FF031340BB60C5
:100BA400FB681A02BB68134343F0BF6343F400338A
:100BB400BB60044ABB68D36000BF1437BD4680BC29
:100BC400704700BF00ED00E080B582B000AF03467F
:100BD400FB71FB791846FFF7D3FF00BF0837BD460A
:100BE40080BD000080B483B000AF0346FB71FB7985
:100BF400042B06D1084B1B68074A43F00403136017
:100C040005E0054B1B68044A23F00403136000BF8E
:100C14000C37BD4680BC704710E000E080B400AFE4
:100C240000BFBD4680BC704780B400AFFEE780B40F
:100C340000AFFEE780B400AFFEE780B400AFFEE78C
:100C440080B400AF00BFBD4680BC704780B400AF25
:100C540000BFBD4680BC704780B400AF00BFBD4636
:100C640080BC704780B400AF00BFBD4680BC7047F5
:100C740080B400AF044BDB681B0A03F0070318467B
:100C8400BD4680BC704700BF00ED00E080B483B077
:100C940000AF03463960FB7197F90730002B0ADB7C
:100CA4003B68DAB20C4997F907301201D2B20B440F
:100CB40083F800230AE03B68DAB20849FB7903F0C1
:100CC4000F03043B1201D2B20B441A7600BF0C3757
:100CD400BD4680BC704700BF00E100E000ED00E0CD
:100CE40080B489B000AFF860B9607A60FB6803F043
:100CF4000703FB61FB69C3F10703042B28BF04232B
:100D0400BB61FB690433062B02D9FB69033B00E09A
:100D140000237B614FF0FF32BB6902FA03F3DA432D
:100D2400BB681A407B699A404FF0FF317B6901FA36
:100D340003F3D9437B680B40134318462437BD465D
:100D440080BC704780B500AFFFF766FB012104202B
:100D5400FFF720FC00BF2348FFF792FB0346012B5B
:100D6400F9D101210120FFF715FC00BFFFF7AFFB0C
:100D74000346002BFAD001210020FFF70BFC00BF33
:100D84000120FFF77DFB0346012BF9D101221D2130
:100D94000120FFF793FC01210220FFF7FBFB00BFBA
:100DA4001920FFF76DFB0346012BF9D10020FFF753
:100DB40043FC0420FFF76CFC0420FFF753FC0120E4
:100DC400FFF7ECFD0220FFF7C7FC00BFFFF7EEFCC6
:100DD4000346022BFAD10020FFF7E0FDFFF774FA77
:100DE40000BF80BD0100240080B500AF01214FF495
:100DF400C010FFF791FB01210848FFF78DFB01218B
:100E04000748FFF789FB01210648FFF785FB01210D
:100E14000548FFF781FB00BF80BD00BF020018003A
:100E240003001800040018000500180080B500AF86
:100E34000320FFF7C9FEFFF71BFF03460022002132
:100E44001846FFF74DFF034619466FF00B00FFF7F6
:100E54001DFFFFF70DFF0346002200211846FFF790
:100E64003FFF034619466FF00A00FFF70FFFFFF735
:100E7400FFFE0346002200211846FFF731FF034618
:100E840019466FF00900FFF701FFFFF7F1FE034673
:100E9400002200211846FFF723FF034619466FF08E
:100EA4000400FFF7F3FEFFF7E3FE034600220021F0
:100EB4001846FFF715FF034619466FF00300FFF7C6
:100EC400E5FEFFF7D5FE0346002200211846FFF792
:100ED40007FF034619466FF00100FFF7D7FEFFF73F
:100EE400C7FE034600220F211846FFF7F9FE03460A
:100EF40019464FF0FF30FFF7C9FE00BF80BD000068
:100F040080B500AFFFF71EFFFFF76EFFFFF78EFF00
:100F140000F08AF800F018F801224FF40051094853
:100F2400FFF717FE4FF4FA7000F05CF800224FF45C
:100F340000510448FFF70DFE4FF4FA7000F052F828
:100F4400EAE700BF0010014080B582B000AF3B4625
:100F54001846FFF7D7FD4FF400510B48FFF7EBFDA0
:100F64000223FB7100233B711023BB714FF4005328
:100F74003B6004237B713B4619460348FFF728FD79
:100F840000BF0837BD4680BD0010014080B487B063
:100F940000AF7860114B1A687B6802FB03F37B6136
:100FA4000F4B9B683B610E4B9B68FB60FA683B6987
:100FB4009A4203D83A69FB68D31A04E03A69FB6899
:100FC400D31A03F18073BB60BA687B699A42EAD38F
:100FD40000BF00BF1C37BD4680BC70472000002006
:100FE40010E000E080B582B000AF786014E07B6868
:100FF400322B07D94CF25030FFF7C8FF7B68323BE5
:101004007B6009E07B684FF47A7202FB03F31846B5
:10101400FFF7BCFF00237B607B68002BE7D100BF98
:1010240000BF0837BD4680BD80B586B000AF002341
:101034007B613B461846FFF7C7FB7B68DB087B6197
:101044000020FFF7CFFD7B690B4AA2FB03239B0C17
:101054000A4A13600A4B00229A60094B6FF07F42E0
:101064005A60074B1B68064A43F00103136000BF34
:101074001837BD4680BD00BF83DE1B43200000201F
:1010840010E000E0F8B500BFF8BC08BC9E4670470D
:0C109400F8B500BFF8BC08BC9E467047D1
:1010A0000000000000000000010203040607080918
:1010B0000000000000000000010203040607080908
:1010C000000000000102030400000000010203040C
:0810D00002040608020C0810DE
:0410D800A901000862
:0410DC008501000882
:0410E00000127A0080
:040000050800020DE0
:00000001FF
